:1004AC0050617373776F72643A00434F52524543F5
:0A04BC00540057524F4E4720200015
:04052C00021604D2DD
:10018C001204F57BFF7A0479AC7D017F0112044ED9
:10019C001200038F15E51560EAD3940A5048C3E5A5
:1001AC00129404E5119400502FAE13AF147C007D13
:1001BC000A12027D8E138F14E51575F00A84E5F092
:1001CC002514F514E43513F5137F147E001204C6C0
:1001DC000512E51270020511750C04AB14AA137DFF
:1001EC00017F0212048FE515640B7036E514B51708
:1001FC000DE513B516087BFF7A0479B680067BFFF4
:10020C007A0479BE7D0A7F0112044EE4F513F514CD
:10021C00F511F512750C04AB14AA137D017F0212B3
:10022C00048FE515640C600302018FF513F514F5CA
:10023C0011F512750C04AB14AA137D017F02120484
:04024C008F02018F8D
:0404C600EF4E601481
:1004CA0000750902750AC7D50AFDD509FAEF1F702A
:0204DA00EB1E17
:0304DC0080E82293
:06050900C2A58F80D2A7FD
:08050F007F027EEFDEFEDFFC3F
:0105170022C1
:0A051800C2A6120509C2A702050FD2
:10047100CFCDCFCECCCE12028F7C007D0A12028F5F
:04048100ED2430FF37
:0A048500D2A6120509C2A702050F56
:1004DF00AE07BE0104ED148006BE0209ED243F44B1
:0604EF0080FF1205182237
:1004F5007F381205187F0C1205187F061205187F24
:0405050001020518D2
:0A052200AC031204DFAF04020485ED
:06044E008B088A09890AEF
:100454001204DFE4FDAB08AA09A90A8D82758300A2
:0C046400120250FF60061204850D80E9B2
:010470002269
:0C041B007F0AEA24FFFDE434FFFC7E00B1
:080427008E0D8F0E8C0F8D105D
:10042F007F017E00E4FBEBC39510E50F6480F87449
:0E043F008098500AAC0DAD0E12027D0B80E8C5
:01044D00228C
:04048F008A0A8B0B3F
:100493001204DFAA0CEAD39400400D12041BAC0A29
:0804A300AD0B1204711A80ED8B
:0104AB00222E
:100370001204DFC3EA64809480400B7F2B12048553
:100380008A1D8B1E800E7F2D120485C3E49BF51EF3
:10039000E49AF51DAA1CEAD39400400D12041BAC8C
:0903A0001DAD1E1204711A80ED5E
:0103A9002231
:0403AA008A218B22F7
:1003AE001204DFAA23EAD3940040297F1012041D01
:1003BE00AC21AD22CFCDCFCECCCE12028FEF540FCB
:1003CE00FEC3940AEE5004243080022437FF120438
:0403DE00851A80D12B
:0103E20022F8
:0403E3008A268B27B4
:1003E7001204DFAA28EAD394004028EA24FFFDE498
:1003F70034FFFC7F027E00120427AC26AD27CFCD49
:10040700CFCECCCE12028FEF54012430FF120485D9
:030417001A80D276
:01041A0022BF
:10000300E4F5087590FFC2932097137F14FE120442
:10001300C63097FD7F147E001204C6750801209632
:10002300147F147E001204C63096FD7F147E0012E6
:1000330004C67508052095147F147E001204C6308B
:1000430095FD7F147E001204C67508092094147F61
:10005300147E001204C63094FD7F147E001204C681
:1000630075080D7590FFC2922097147F147E0012BD
:1000730004C63097FD7F147E001204C67508022063
:1000830096147F147E001204C63096FD7F147E0002
:100093001204C67508062095147F147E001204C648
:1000A3003095FD7F147E001204C675080A2094144F
:1000B3007F147E001204C63094FD7F147E00120468
:1000C300C675080E7590FFC2912097147F147E00A9
:1000D3001204C63097FD7F147E001204C675080310
:1000E3002096147F147E001204C63096FD7F147E82
:1000F300001204C67508072095147F147E001204AD
:10010300C63095FD7F147E001204C675080B20943B
:10011300147F147E001204C63094FD7F147E0012F7
:1001230004C675080F7590FFC2902097147F147E44
:10013300001204C63097FD7F147E001204C67508B2
:10014300042096147F147E001204C63096FD7F149B
:100153007E001204C67508082095147F147E0012D1
:1001630004C63095FD7F147E001204C675080C206A
:1001730094147F147E001204C63094FD7F147E0015
:080183001204C6750810AF0854
:01018B002251
:030000000202E415
:0C02E400787FE4F6D8FD75812802032B1A
:10025000BB010CE58229F582E5833AF583E0225063
:1002600006E92582F8E622BBFE06E92582F8E222AD
:0D027000E58229F582E5833AF583E49322C7
:10027D00EF8DF0A4A8F0CF8CF0A428CE8DF0A42E95
:02028D00FE224F
:10028F00BC000BBE0029EF8DF084FFADF022E4CC53
:10029F00F875F008EF2FFFEE33FEEC33FCEE9DEC1C
:1002AF00984005FCEE9DFE0FD5F0E9E4CEFD22ED62
:1002BF00F8F5F0EE8420D21CFEADF075F008EF2FAC
:1002CF00FFED33FD4007985006D5F0F222C398FD9D
:0502DF000FD5F0EA223A
:1002F00002018CE493A3F8E493A34003F68001F297
:1003000008DFF48029E493A3F85407240CC8C3330E
:10031000C4540F4420C8834004F456800146F6DFDD
:10032000E4800B010204081020408090052CE47E3C
:10033000019360BCA3FF543F30E509541FFEE493D2
:10034000A360010ECF54C025E060A840B8E493A399
:10035000FAE493A3F8E493A3C8C582C8CAC583CAC4
:10036000F0A3C8C582C8CAC583CADFE9DEE780BE7C
:0105300000CA
:00000001FF
