:1009850020200020202D20202D20200020203A206E
:05099500203A202000C3
:1005FE001204E5E518FB3395E0FA750C027D017FD8
:10060E0001120922E519FB3395E0FA750C027D04FF
:10061E007F01120922E51AFB3395E0FA750C027D73
:10062E00077F01120922E51BFB3395E0FA750C02D8
:10063E007D017F02120922E51CFB3395E0FA750C51
:10064E00027D047F02120922E51DFB3395E0FA7547
:09065E000C027D077F0202092253
:10000E00E524B4020B0522E52275F0068485F02264
:10001E00E524640360030200E874182522F806D371
:10002E00E518648094E34003E4F518D3E519648081
:10003E00948C4003751901E51964016023E5196478
:10004E0003601DE51964056017E51964076011E585
:10005E00196408600BE519640A6005E519B40C0B08
:10006E00D3E51A6480949F404D8048E5196404607E
:10007E0011E5196406600BE51964096005E519B40C
:10008E000B0BD3E51A6480949E402B8026E519B4A1
:10009E000224E51875F00412042FAFF0EF700BD3A5
:1000AE00E51A6480949D400E8009D3E51A6480940D
:1000BE009C4003751A01D3E51B648094974003E4BA
:1000CE00F51BD3E51C648094BB4003E4F51CD3E51B
:1000DE001D648094BB4003E4F51DE52464046003B5
:1000EE000201BB74182522F816C3E51864809480AB
:1000FE005003751863C3E519648094815003751914
:10010E000CE51964016023E5196403601DE51964AB
:10011E00056017E51964076011E5196408600BE5C1
:10012E0019640A6005E519B40C0EC3E51A648094CF
:10013E00815056751A1F8051E51964046011E51936
:10014E006406600BE51964096005E519B40B0EC36E
:10015E00E51A648094815031751A1E802CE519B40D
:10016E000227E51875F00412042FAFF0EF700EC3DE
:10017E00E51A648094815011751A1D800CC3E51A1E
:10018E00648094815003751A1CC3E51B64809480AF
:10019E005003751B17C3E51C648094805003751CB7
:1001AE003BC3E51D648094805003751D3BE52270B2
:1001BE0014E523B4010F7BFF7A0979857D017F0158
:1001CE001208E18011E518FB3395E0FA750C027DFB
:1001DE00017F01120922E522B40114E523B4010FB7
:1001EE007BFF7A0979857D047F011208E18011E594
:1001FE0019FB3395E0FA750C027D047F011209227A
:10020E00E522B40214E523B4010F7BFF7A09798548
:10021E007D077F011208E18011E51AFB3395E0FAA4
:10022E00750C027D077F01120922E522B40314E545
:10023E0023B4010F7BFF7A0979857D017F021208B5
:10024E00E18011E51BFB3395E0FA750C027D017F11
:10025E0002120922E522B40414E523B4010F7BFF38
:10026E007A0979857D047F021208E18011E51CFB75
:10027E003395E0FA750C027D047F02120922E52205
:10028E00B40512E523B4010D7BFF7A0979857D074C
:10029E007F020208E1E51DFB3395E0FA750C027D45
:0702AE00077F021209222262
:1007260012099A1200031209587BFF7A0979887D0B
:10073600017F011208E17BFF7A0979917D017F0231
:100746001208E11202B51206678F24E524B40114DB
:10075600E521B40108E4F5211202B58007E5217010
:1007660003752101E5211460080470DA1205FE8084
:06077600D512000E80D038
:03000B00020804E4
:09080400C0E0C0D075D000C007AF
:10080D00758A18758CFC0520E5207002051FC394B0
:10081D00F4E51F94014012751F00752000E523704B
:09082D00047F0180027F008F238B
:07083600D007D0D0D0E03262
:04093F00EF4E601403
:1009430000750902750AC7D50AFDD509FAEF1F70AC
:02095300EB1E99
:0309550080E82215
:0609AE00C2A58F80D2A754
:0809B4007F027EEFDEFEDFFC96
:0109BC002218
:0A09BD00C2A61209AEC2A70209B4D7
:10090400CFCDCFCECCCE1204907C007D0A120490C1
:04091400ED2430FF9F
:0A091800D2A61209AEC2A70209B46C
:10096F00AE07BE0104ED148006BE0209ED243F441C
:06097F0080FF1209BD22F9
:10099A007F381209BD7F0C1209BD7F061209BD7F7F
:0409AA00010209BD80
:0A09C700AC0312096FAF0402091817
:0608E1008B088A09890A58
:1008E70012096FE4FDAB08AA09A90A8D8275830076
:0C08F700120451FF60061209180D80E980
:0109030022D1
:0C08AE007F0AEA24FFFDE434FFFC7E001A
:0808BA008E0D8F0E8C0F8D10C6
:1008C2007F017E00E4FBEBC39510E50F6480F874B2
:0E08D2008098500AAC0DAD0E12047E0B80E82B
:0108E00022F5
:040922008A0A8B0BA7
:1009260012096FAA0CEAD39400400D1208AEAC0A65
:08093600AD0B1209041A80ED5B
:01093E002296
:1007CA0012096FC3EA64809480400B7F2B120918C8
:1007DA008A168B17800E7F2D120918C3E49BF51712
:1007EA00E49AF516AA15EAD39400400D1208AEACA5
:0907FA0016AD171209041A80ED76
:0108030022D2
:04083D008A278B2853
:1008410012096FAA29EAD3940040297F101208B037
:10085100AC27AD28CFCDCFCECCCE120490EF540F24
:10086100FEC3940AEE5004243080022437FF12099B
:04087100181A80D100
:010875002260
:040876008A2C8B2D10
:10087A0012096FAA2EEAD394004028EA24FFFDE465
:10088A0034FFFC7F027E001208BAAC2CAD2DCFCD0E
:10089A00CFCECCCE120490EF54012430FF120918A7
:0308AA001A80D2DF
:0108AD002228
:0909D10007181908140A00340388
:05000300C2B5C2B622E7
:0506C8002DFDEE3CFCDD
:0606CD008C088D09AB074B
:1006D300D2B5E4FD74017E00A805088005C333CEBE
:1006E30033CED8F9FFEBF582EF558224FF92B4D2D3
:1006F300B6C2B60DBD08DDE4FD74017E00A8050891
:100703008005C333CE33CED8F9FFE5085EFEE50995
:100713005F4E24FF92B4D2B6C2B60DBD08DBC2B59C
:02072300C2B45E
:0107250022B1
:02077C00AD07C7
:10077E00E4F9430501D2B5FB74017E00A80308809D
:10078E0005C333CE33CED8F9FFEDF582EF55822473
:10079E00FF92B4C2B6D2B60BBB08DDE4FBD2B6C232
:1007AE00B630B40D7401A803088002C333D8FC42DE
:0B07BE00010BBB08E8C2B5C2B4AF01DC
:0107C900220D
:1002B500E4FDFC7F8E1206CDE51875F00A12042FB9
:1002C500FF3395E0FEEFC4F8540FC868FFEEC45441
:1002D500F048FEE51875F00A12042FADF0ED3395E0
:1002E500E0FCEF7F8C1206C8E51975F00A12042FA1
:1002F500FF3395E0FEEFC4F8540FC868FFEEC45411
:10030500F048FEE51975F00A12042FADF0ED3395AE
:10031500E0FCEF7F881206C8E51A75F00A12042F73
:10032500FF3395E0FEEFC4F8540FC868FFEEC454E0
:10033500F048FEE51A75F00A12042FADF0ED33957D
:10034500E0FCEF2DFDEE3CFC7F861206CDE51B752E
:10035500F00A12042FFF3395E0FEEFC4F8540FC8DE
:1003650068FFEEC454F048FEE51B75F00A12042F31
:10037500ADF0ED3395E0FCEF2DFDEE3CFC7F8412F6
:1003850006CDE51C75F00A12042FFF3395E0FEEF4C
:10039500C4F8540FC868FFEEC454F048FEE51C7558
:1003A500F00A12042FADF0ED3395E0FCEF2DFDEED4
:1003B5003CFC7F821206CDE51D75F00A12042FFF65
:1003C5003395E0FEEFC4F8540FC868FFEEC454F04F
:1003D50048FEE51D75F00A12042FADF0ED3395E0EA
:1003E500FCEF2DFDEE3CFC7F801206CDE51E75F081
:1003F5000A12042FFF3395E0FEEFC4F8540FC868C6
:10040500FFEEC454F048FEE51E75F00A12042FAD48
:10041500F0ED3395E0FCEF2DFDEE3CFC7F8A1206F6
:0A042500CD7D807C007F8E0206CDA5
:1004E5007F8C12077CEFC4540F75F00AA4FEEF54FD
:1004F5000F2EF5187F8812077CEFC4540F75F00A8C
:10050500A4FEEF540F2EF5197F8612077CEFC45415
:100515000F75F00AA4FEEF540F2EF51A7F8412070B
:100525007CEFC4540F75F00AA4FEEF540F2EF51B93
:100535007F8212077CEFC4540F75F00AA4FEEF54B6
:100545000F2EF51C7F8012077CEFC4540F75F00A3F
:10055500A4FEEF540F2EF51D7F8A12077CEFC454BD
:0C0565000F75F00AA4FEEF540F2EF51ED7
:010571002267
:10066700E4F50820B1137F14FE12093F30B1FD7F76
:10067700147E0012093F75080120B0147F147E0014
:1006870012093F30B0FD7F147E0012093F75080242
:1006970020B2147F147E0012093F30B2FD7F147E12
:1006A7000012093F75080320B3147F147E00120956
:1006B7003F30B3FD7F147E0012093F750804AF0871
:0106C7002210
:100958005389F0438901758A18758CFCC28DD28C35
:07096800D2A9D2AFC2B922EF
:0300000002057284
:0C057200787FE4F6D8FD75812E0205B9F3
:10042F00C2D530F707B2D563F0FF05F030E70CB255
:10043F00D5F4048463F0FF05F080018430D502F415
:02044F00042285
:10045100BB010CE58229F582E5833AF583E0225060
:1004610006E92582F8E622BBFE06E92582F8E222AA
:0D047100E58229F582E5833AF583E49322C4
:10047E00EF8DF0A4A8F0CF8CF0A428CE8DF0A42E92
:02048E00FE224C
:10049000BC000BBE0029EF8DF084FFADF022E4CC50
:1004A000F875F008EF2FFFEE33FEEC33FCEE9DEC19
:1004B000984005FCEE9DFE0FD5F0E9E4CEFD22ED5F
:1004C000F8F5F0EE8420D21CFEADF075F008EF2FA9
:1004D000FFED33FD4007985006D5F0F222C398FD9A
:0504E0000FD5F0EA2237
:10057E00020726E493A3F8E493A34003F68001F266
:10058E0008DFF48029E493A3F85407240CC8C3337E
:10059E00C4540F4420C8834004F456800146F6DF4D
:1005AE00E4800B01020408102040809009D1E47E03
:1005BE00019360BCA3FF543F30E509541FFEE49342
:1005CE00A360010ECF54C025E060A840B8E493A309
:1005DE00FAE493A3F8E493A3C8C582C8CAC583CA34
:1005EE00F0A3C8C582C8CAC583CADFE9DEE780BEEC
:0109DA00001C
:00000001FF
