:10022300014C00016C002044080000F88CF8F3F93D
:100233005BF9B8FA15FAB9FB04FB4BFB90FBCFFC57
:1002430010FC44FC79FCACFD09FD34FD5CFD82FD32
:10025300A6FDC8FDE8FE0BFE22FE3DFE56FE6EFE29
:1002630085FE9AFEAEFEC1FED3FEF4FF031F4D0DC5
:10027300040D0414041404160416041408000412D0
:0E028300041204110411040F040F040D08FFEF
:10036200120405744D256CF8E6FFF460238F4C05EA
:100372006C744D256CF8E675F03EA4FFAEF01203E6
:10038200EC056CC28C7F057E001203ECD28C80D30C
:04039200C28C80CFCA
:03000B0002039657
:10039600C0E0C0D075D000C000C006E54C25E02402
:1003A60008F8E6FE08E64E6012E54C25E02408F85B
:1003B600E6FE08E6F58AEEF58CB2A5D006D000D0AA
:0403C600D0D0E03281
:0403EC00EF4E60145C
:1003F00000757C02757DC7D57DFDD57CFAEF1F7039
:02040000EB1EF1
:0304020080E8226D
:10030100E4F57E20B1137F14FE1203EC30B1FD7FC2
:10031100147E001203EC757E0120B0147F147E0060
:100321001203EC30B0FD7F147E001203EC757E02E7
:1003310020B2147F147E001203EC30B2FD7F147ED4
:10034100001203EC757E0320B3147F147E001203A8
:10035100EC30B3FD7F147E001203EC757E04AF7E9A
:010361002279
:0C0291000A723F065B4F666D7D077F6FB1
:10029E00EF14B4080050549002B375F003A4C58354
:1002AE0025F0C583730202CB0202CF0202D30202F3
:1002BE00D70202DB0202E30202EB0202F3D2A480B7
:1002CE000ED2A48012D2A48016D2A4801AC2A4D2B6
:1002DE00A3D2A28016C2A4D2A3C2A2800EC2A4C26E
:1002EE00A3D2A28006C2A4C2A3C2A274722DF8E643
:0302FE00F5802266
:05000300007FE3DFFEB9
:0100080022D5
:0403CA00AD07AC06C9
:1003CE00E4FBFAED25E0FFEC33FEC3EB9FEA9E5013
:0D03DE000CB2A51200030BBB00010A80E663
:0103EB0022EF
:10000E00E4F57F7590FFC2932097137F14FE1203C1
:10001E00EC3097FD7F147E001203EC757F01209665
:10002E00147F147E001203EC3096FD7F147E0012B6
:10003E0003EC757F052095147F147E001203EC30BF
:10004E0095FD7F147E001203EC757F092094147FBA
:10005E00147E001203EC3094FD7F147E001203EC2C
:10006E00757F0D7590FFC2922097147F147E00123B
:10007E0003EC3097FD7F147E001203EC757F022097
:10008E0096147F147E001203EC3096FD7F147E00D2
:10009E001203EC757F062095147F147E001203EC7C
:1000AE003095FD7F147E001203EC757F0A209414A8
:1000BE007F147E001203EC3094FD7F147E00120339
:1000CE00EC757F0E7590FFC2912097147F147E0001
:1000DE001203EC3097FD7F147E001203EC757F0344
:1000EE002096147F147E001203EC3096FD7F147E52
:1000FE00001203EC757F072095147F147E00120307
:10010E00EC3095FD7F147E001203EC757F0B20946E
:10011E00147F147E001203EC3094FD7F147E0012C7
:10012E0003EC757F0F7590FFC2902097147F147E9D
:10013E00001203EC3097FD7F147E001203EC757FE6
:10014E00042096147F147E001203EC3096FD7F146B
:10015E007E001203EC757F082095147F147E00122A
:10016E0003EC3095FD7F147E001203EC757F0C209E
:10017E0094147F147E001203EC3094FD7F147E00E5
:08018E001203EC757F10AF7F36
:010196002246
:100405005389F0438901758A18758CFCC28DD28C8D
:07041500D2A9D2AFC2B92247
:0300000002019763
:0C019700787FE4F6D8FD75817F0201DE60
:1001A300020362E493A3F8E493A34003F68001F20D
:1001B30008DFF48029E493A3F85407240CC8C3335D
:1001C300C4540F4420C8834004F456800146F6DF2C
:1001D300E4800B0102040810204080900223E47E97
:1001E300019360BCA3FF543F30E509541FFEE49321
:1001F300A360010ECF54C025E060A840B8E493A3E8
:10020300FAE493A3F8E493A3C8C582C8CAC583CA12
:10021300F0A3C8C582C8CAC583CADFE9DEE780BECA
:01029D000060
:00000001FF
