:100045009898990101999898989099010199909893
:1000550098A09A01019AA09898A09A01019AA0984F
:1000650098A09A01019AA098989099010199909861
:10000300E4F50AF50B1200E9E4F508E508250A9082
:10001300004593FD7C00AF081200A20508E508C364
:10002300940840E7050BE50BD394324009E4F50B44
:100033007408250AF50AE50AC3943040CBE4F50AAF
:0200430080C675
:0400C400EF4E601487
:1000C80000750C02750DC7D50DFDD50CFAEF1F7024
:0200D800EB1E1D
:0300DA0080E82299
:02007500AD07D5
:10007700E4FB74807E00A803088006CEA2E713CEB7
:1000870013D8F8FFEDF582EF558224FF92B4D2B66C
:0A009700C2B60BBB08DCD2B5C2B53F
:0100A100223C
:0500E900C2B6C2B52201
:1000A200AA07AF05120075AF027480A80708800284
:1000B200C313D8FCF4F5807F017E001200C4758062
:0200C200FF221B
:030000000200DD1E
:0C00DD00787FE4F6D8FD75810D02000369
:00000001FF
