:07000300436C6F636B3A00D0
:09054F00011A33011C3B011B0DD4
:100318001204FF12052C7BFF7A0079037D017F010F
:10032800120489E51AFB7A00750C027D077F021218
:1003380004CAE51CFB7A00750C027D047F021204D6
:10034800CAE51BFB7A00750C027D017F021204CA04
:100358007B3A7D037F021205637B3A7D067F02129A
:04036800056380BFEA
:03000B0002036C81
:04036C00C0E0C0D05D
:10037000758A18758CFC0519E51970020518C39467
:10038000E8E5189403401F751800751900051AE573
:100390001A943C4005751A00051CE51CC3943C40AA
:0603A00005751C00051BA1
:0503A600D0D0D0E032D0
:0404E700EF4E601361
:1004EB0075270C7528A9D528FDD527FAEF1F70ECB9
:0104FB001EE2
:0304FC0080E92272
:10000E00E4F5297590FFC2932097137F14FE120416
:10001E00E73097FD7F147E001204E77529012096C4
:10002E00147F147E001204E73096FD7F147E0012BA
:10003E0004E77529052095147F147E001204E7301D
:10004E0095FD7F147E001204E77529092094147F14
:10005E00147E001204E73094FD7F147E001204E734
:10006E0075290D7590FFC2922097147F147E001291
:10007E0004E73097FD7F147E001204E775290220F5
:10008E0096147F147E001204E73096FD7F147E00D6
:10009E001204E77529062095147F147E001204E7DA
:1000AE003095FD7F147E001204E775290A20941402
:1000BE007F147E001204E73094FD7F147E0012043C
:1000CE00E775290E7590FFC2912097147F147E005C
:1000DE001204E73097FD7F147E001204E7752903A2
:1000EE002096147F147E001204E73096FD7F147E56
:1000FE00001204E77529072095147F147E00120460
:10010E00E73095FD7F147E001204E775290B2094CD
:10011E00147F147E001204E73094FD7F147E0012CB
:10012E0004E775290F7590FFC2902097147F147EF7
:10013E00001204E73097FD7F147E001204E7752944
:10014E00042096147F147E001204E73096FD7F146F
:10015E007E001204E77529082095147F147E001284
:10016E0004E73095FD7F147E001204E775290C20FC
:10017E0094147F147E001204E73094FD7F147E00E9
:08018E001204E7752910AF29E6
:010196002246
:1002B700E4F52A20B1137F14FE1204E730B1FD7F65
:1002C700147E001204E7752A0120B0147F147E0003
:1002D7001204E730B0FD7F147E001204E7752A028E
:1002E70020B2147F147E001204E730B2FD7F147E23
:1002F700001204E7752A0320B3147F147E0012044A
:10030700E730B3FD7F147E001204E7752A04AF2A95
:0103170022C3
:06054000C2A58F80D2A7C6
:080546007F027EEFDEFEDFFC08
:01054E00228A
:0A055900C2A6120540C2A702054623
:1004AC00CFCDCFCECCCE1201D67C007D0A1201D698
:0404BC00ED2430FFFC
:0A04C000D2A6120540C2A7020546AD
:10051600AE07BE0104ED148006BE0209ED243F4479
:0605260080FF12055922BE
:10052C007F381205597F0C1205597F061205597F29
:04053C00010205595A
:0A056300AC03120516AF040204C039
:060489008B088A09890AB4
:10048F00120516E4FDAB08AA09A90A8D827583002F
:0C049F00120197FF60061204C00D80E9F6
:0104AB00222E
:0C0456007F0AEA24FFFDE434FFFC7E0076
:080462008E0D8F0E8C0F8D1022
:10046A007F017E00E4FBEBC39510E50F6480F8740E
:0E047A008098500AAC0DAD0E1201C40B80E844
:010488002251
:0404CA008A0A8B0B04
:1004CE00120516AA0CEAD39400400D120456AC0A7B
:0804DE00AD0B1204AC1A80ED15
:0104E60022F3
:1003AB00120516C3EA64809480400B7F2B1204C0A5
:1003BB008A168B17800E7F2D1204C0C3E49BF51792
:1003CB00E49AF516AA15EAD39400400D120456AC24
:0903DB0016AD171204AC1A80EDF6
:0103E40022F6
:0403E5008A1F8B20C0
:1003E900120516AA21EAD3940040297F1012045855
:1003F900AC1FAD20CFCDCFCECCCE1201D6EF540F4E
:10040900FEC3940AEE5004243080022437FF1204FC
:04041900C01A80D1B4
:01041D0022BC
:04041E008A248B257C
:10042200120516AA26EAD394004028EA24FFFDE426
:1004320034FFFC7F027E00120462AC24AD25CFCDD6
:10044200CFCECCCE1201D6EF54012430FF1204C01D
:030452001A80D23B
:010455002284
:1004FF005389F0438901758A18758CFCC28DD28C93
:07050F00D2A9D2AFC2B9224C
:0300000002022BCE
:0C022B00787FE4F6D8FD75812A0202728B
:10019700BB010CE58229F582E5833AF583E022501D
:1001A70006E92582F8E622BBFE06E92582F8E22267
:0D01B700E58229F582E5833AF583E4932281
:1001C400EF8DF0A4A8F0CF8CF0A428CE8DF0A42E4F
:0201D400FE2209
:1001D600BC000BBE0029EF8DF084FFADF022E4CC0D
:1001E600F875F008EF2FFFEE33FEEC33FCEE9DECD6
:1001F600984005FCEE9DFE0FD5F0E9E4CEFD22ED1C
:10020600F8F5F0EE8420D21CFEADF075F008EF2F65
:10021600FFED33FD4007985006D5F0F222C398FD56
:050226000FD5F0EA22F3
:10023700020318E493A3F8E493A34003F68001F2C2
:1002470008DFF48029E493A3F85407240CC8C333C8
:10025700C4540F4420C8834004F456800146F6DF97
:10026700E4800B010204081020408090054FE47ED3
:10027700019360BCA3FF543F30E509541FFEE4938C
:10028700A360010ECF54C025E060A840B8E493A353
:10029700FAE493A3F8E493A3C8C582C8CAC583CA7E
:1002A700F0A3C8C582C8CAC583CADFE9DEE780BE36
:0105580000A2
:00000001FF
