:040072007F147E0079
:10007600D3EF9400EE9400400F7D0C7CA9DCFEDDEE
:08008600FCEF1F70EB1E80E887
:01008E00224F
:1000030075A0FE7F0A7E0012007620B02E120072C9
:1000130030B01020A70575A0FE8008E5A0F425E008
:10002300F4F5A020B01520A70575A0FE8008E5A073
:10003300F425E0F4F5A012007280E820B1C51200A7
:100043007230B11020A00575A07F8008E5A0F4C32D
:1000530013F4F5A020B1AC20A00875A07F120072A4
:0F00630080F2E5A0F4C313F4F5A012007280E55B
:0300000002008F6C
:0C008F00787FE4F6D8FD758107020003BD
:00000001FF
