:0D02FF0041444A20204E5443202052470025
:100110001202CB7BFF7A0279FF7D017F011202552B
:100120007F9C1200978E228F23750C03AB23AA228B
:100130007D017F021202967FDC1200978E228F23B0
:10014000750C03AB23AA227D067F021202967FACB8
:100150001200978E228F23750C03AB23AA227D0BEE
:0E0160007F021202967F017E001202B380B26F
:0402B300EF4E601397
:1002B700750C0C750DA9D50DFDD50CFAEF1F70EC5B
:0102C7001E18
:0302C80080E922A8
:0602DF00C2A58F80D2A72A
:0902E500007F027EC7DEFEDFFC93
:0102EE0022ED
:0A031800C2A61202DFC2A70202E52E
:10027800CFCDCFCECCCE1200427C007D0A120042F8
:04028800ED2430FF32
:0A028C00D2A61202DFC2A70202E5AB
:1002CB007F381203187F0C1203187F061203187F56
:0402DB000102031801
:1002EF00EDBF0103148002243F4480FF1203182244
:0A032200AC031202EFAF0402028CDC
:060255008B088A09890AEA
:10025B001202EFE4FDAB08AA09A90A8D827583008F
:0C026B00120003FF600612028C0D80E9F7
:010277002264
:0C0222007F0AEA24FFFDE434FFFC7E00AC
:08022E008E0D8F0E8C0F8D1058
:100236007F017E00E4FBEBC39510E50F6480F87444
:0E0246008098500AAC0DAD0E1200300B80E80F
:010254002287
:040296008A0A8B0B3A
:10029A001202EFAA0CEAD39400400D120222AC0A11
:0802AA00AD0B1202781A80ED81
:0102B2002229
:10016E001202EFD3EB9400EA6480948040097F2B57
:10017E0012028C8A168B17C3EA64809480500E7F0D
:10018E002D12028CC3E49BF517E49AF516AA15EA14
:10019E00D39400400D120222AC16AD171202781A3B
:0201AE0080EDE2
:0101B000222C
:0401B1008A1A8B1B00
:1001B5001202EFAA1CEAD3940040297F10120224F0
:1001C500AC1AAD1BCFCDCFCECCCE120042EF540F23
:1001D500FEC3940AEE5004243080022437FF120235
:0401E5008C1A80D11F
:0101E90022F3
:0401EA008A1F8B20BD
:1001EE001202EFAA21EAD394004028EA24FFFDE48C
:1001FE0034FFFC7F027E0012022EAC1FAD20CFCD4D
:10020E00CFCECCCE120042EF54012430FF12028C1E
:03021E001A80D271
:0102210022BA
:020097008F08D0
:10009900C2B6C2B5E4F50974807E00A809088006D5
:1000A900CEA2E713CE13D8F8FFEF550824FF92B478
:1000B900D2B6C2B60509E509B408DCE4F509D2B639
:1000C9007F017E001202B3C2B630B714E47E80A865
:1000D90009088005CEC313CE13D8F9420BEE420AA4
:1000E9000509E509C3941040D5D2B5E50830E30602
:1000F900E50AFF7E0022E50AC4F854F0C868FEE567
:060109000BC4540F48FF77
:01010F0022CD
:0300000002030CEC
:0C030C00787FE4F6D8FD75812302011013
:10000300BB010CE58229F582E5833AF583E02250B2
:1000130006E92582F8E622BBFE06E92582F8E222FC
:0D002300E58229F582E5833AF583E4932216
:10003000EF8DF0A4A8F0CF8CF0A428CE8DF0A42EE4
:02004000FE229E
:10004200BC000BBE0029EF8DF084FFADF022E4CCA2
:10005200F875F008EF2FFFEE33FEEC33FCEE9DEC6B
:10006200984005FCEE9DFE0FD5F0E9E4CEFD22EDB1
:10007200F8F5F0EE8420D21CFEADF075F008EF2FFB
:10008200FFED33FD4007985006D5F0F222C398FDEC
:050092000FD5F0EA2289
:00000001FF
