:100357005772697465204F4B0020202020202020F1
:10036700200052656164204F4B0020202020202070
:02037700200064
:10000300120401750C05AB23AA227D017F011203A3
:10001300B51201788F24E52460F7B401150523E5B3
:100023002370020522750C05FBAA227D017F0112B4
:1000330003B5E524B40216E52315237002152275D2
:100043000C05AB23AA227D017F011203B5E52464CD
:10005300037040FCAD23FF1203107F057E001203E3
:10006300D2E522FD7C007F011203107F057E001282
:1000730003D27BFF7A0379577D017F021203347F1A
:10008300E87E031203D27BFF7A0379607D017F024E
:10009300120334E52464046003020014FF1202B760
:1000A3007522008F237F011202B7EFFEEE42227BFF
:1000B300FF7A0379697D017F02120334750C05AB66
:1000C30023AA227D017F011203B57FE87E03120379
:1000D300D27BFF7A0379717D017F02120334020020
:0100E3001408
:10017800E4F50820B1137F14FE1203D230B1FD7FDD
:10018800147E001203D275080120B0147F147E007B
:100198001203D230B0FD7F147E001203D27508021C
:1001A80020B2147F147E001203D230B2FD7F147E79
:1001B800001203D275080320B3147F147E001203C3
:1001C800D230B3FD7F147E001203D2750804AF0845
:0101D8002204
:06041500C2A58F80D2A7F2
:08041B007F027EEFDEFEDFFC34
:0104230022B6
:0A043C00C2A6120415C2A702041B99
:10037900CFCDCFCECCCE1201237C007D0A12012332
:04038900ED2430FF30
:0A038D00D2A6120415C2A702041B39
:1003EB00AE07BE0104ED148006BE0209ED243F44A6
:0603FB0080FF12043C2209
:100401007F3812043C7F0C12043C7F0612043C7FAF
:040411000102043CA4
:0A044600AC031203EBAF0402038DB8
:060334008B088A09890A0A
:10033A001203EBE4FDAB08AA09A90A8D82758300B2
:0C034A001200E4FF600612038D0D80E934
:010356002284
:0C0284007F0AEA24FFFDE434FFFC7E004A
:080290008E0D8F0E8C0F8D10F6
:100298007F017E00E4FBEBC39510E50F6480F874E2
:0E02A8008098500AAC0DAD0E1201110B80E8CB
:0102B6002225
:0403B5008A0A8B0B1A
:1003B9001203EBAA0CEAD39400400D120284AC0A92
:0803C900AD0B1203791A80ED5F
:0103D1002209
:1001D9001203EBC3EA64809480400B7F2B12038DDA
:1001E9008A168B17800E7F2D12038DC3E49BF5179A
:1001F900E49AF516AA15EAD39400400D120284ACCC
:0902090016AD171203791A80EDFD
:0102120022C9
:040213008A1A8B1B9D
:100217001203EBAA1CEAD3940040297F101202862E
:10022700AC1AAD1BCFCDCFCECCCE120123EF540FDE
:10023700FEC3940AEE5004243080022437FF1203D1
:040247008D1A80D1BB
:01024B002290
:04024C008A1F8B205A
:100250001203EBAA21EAD394004028EA24FFFDE42C
:1002600034FFFC7F027E00120290AC1FAD20CFCD88
:10027000CFCECCCE120123EF54012430FF12038DD8
:030280001A80D20F
:010283002258
:0403D200EF4E601476
:1003D60000750902750AC7D50AFDD509FAEF1F701F
:0203E600EB1E0C
:0303E80080E82288
:09045A00D2A0D2A1C2A0C2A122CD
:07046300C2A0D2A1D2A02229
:0202E700AD0761
:1002E900E4FB74807E00A803088006CEA2E713CE43
:1002F90013D8F8FFEDF582EF558224FF92A0D2A121
:06030900C2A10BBB08DCE1
:01030F0022CB
:10039700E4FFD2A0FED2A130A00D7480A806088089
:0D03A70002C313D8FC4207C2A10EBE08E835
:0103B4002226
:0A045000EF24FF92A0D2A1C2A12266
:0B042400D2A0D2A1A2A0E433FFC2A12D
:01042F0022AA
:100310008F088C098D0A12045A7FA01202E712047A
:1003200024AF081202E7120424AF0A1202E71204F3
:04033000240204633C
:0202B7008F08AE
:1002B90012045A7FA01202E7120424AF081202E7BF
:1002C90012042412045A7FA11202E7120424120311
:0D02D900978F097F01120450120463AF09D2
:0102E60022F5
:03000000020430C7
:0C043000787FE4F6D8FD758124020003FB
:1000E400BB010CE58229F582E5833AF583E02250D1
:1000F40006E92582F8E622BBFE06E92582F8E2221B
:0D010400E58229F582E5833AF583E4932234
:10011100EF8DF0A4A8F0CF8CF0A428CE8DF0A42E02
:02012100FE22BC
:10012300BC000BBE0029EF8DF084FFADF022E4CCC0
:10013300F875F008EF2FFFEE33FEEC33FCEE9DEC89
:10014300984005FCEE9DFE0FD5F0E9E4CEFD22EDCF
:10015300F8F5F0EE8420D21CFEADF075F008EF2F19
:10016300FFED33FD4007985006D5F0F222C398FD0A
:050173000FD5F0EA22A7
:00000001FF
