:1001610012021C751E051201008F1FE51F6401702C
:10017100230521532103E5217002F51EE521B40178
:1001810003751E32E521B40203751E4BE521B4034C
:1001910003751E64E521FD7C007F0112009A80C673
:03000B000201A14E
:1001A100C0E0C0F0C0D0758AA4758CFF0520E520A1
:1001B10075F0648485F020E520C3951E5004D2902B
:0B01C1008002C290D0D0D0F0D0E0321D
:10021C005389F0438901758AA4758CFFC28DD28CE9
:07022C00D2A9D2AFC2B92232
:04020400EF4E601346
:1002080075230C7524A9D524FDD523FAEF1F70ECAE
:010218001EC7
:0302190080E92257
:10010000E4F52220B1137F14FE12020430B1FD7F0A
:10011000147E0012020475220120B0147F147E00A8
:1001200012020430B0FD7F147E0012020475220218
:1001300020B2147F147E0012020430B2FD7F147EC0
:100140000012020475220320B3147F147E001202F1
:100150000430B3FD7F147E00120204752204AF2226
:01016000227C
:1001CC000909000A0A0A0A0A0A0A0A0C123F065B03
:0C01DC004F666D7D077F6F004001080139
:09023300AE0574092FF8A606229D
:10009A00E4F580EF14B4080050549000B275F003F0
:1000AA00A4C58325F0C583730200CA0200CE0200EC
:1000BA00D20200D60200DA0200E20200EA0200F2EC
:1000CA00D2A4800ED2A48012D2A48016D2A4801AFE
:1000DA00C2A4D2A3D2A28016C2A4D2A3C2A2800E64
:1000EA00C2A4C2A3D2A28006C2A4C2A3C2A274128C
:0600FA002DF8E6F580225E
:1001E90074092508F8E6FD7C00AF0812009A050895
:0A01F900E508C394094003750801EE
:0102030022D8
:0300000002000EED
:0C000E00787FE4F6D8FD758124020055CF
:10001A00020161E493A3F8E493A34003F68001F29A
:10002A0008DFF48029E493A3F85407240CC8C333E7
:10003A00C4540F4420C8834004F456800146F6DFB6
:10004A00E4800B01020408102040809001CCE47E79
:10005A00019360BCA3FF543F30E509541FFEE493AB
:10006A00A360010ECF54C025E060A840B8E493A372
:10007A00FAE493A3F8E493A3C8C582C8CAC583CA9D
:10008A00F0A3C8C582C8CAC583CADFE9DEE780BE55
:0101E8000016
:00000001FF
