:10000E001203BE1204138F28E528B4010CE52770E5
:10001E00047F0180027F008F27E528B40207E4F5F4
:10002E0025F524F526E52864037033E525FD7C00CF
:10003E00E4FF12032C7F057E001203A6E524FD7C4F
:10004E00007F0112032C7F057E001203A6E526FD1C
:10005E007C007F0212032C7F057E001203A6E5288A
:10006E00B40415E4FF1202AC8F257F011202AC8F8F
:10007E00247F021202AC8F26E52575F00A84FD7CE2
:10008E00007F01120401E52575F00A84E5F0FD7C80
:10009E00007F021204017D0B7C007F03120401E538
:1000AE002475F00A84FD7C007F04120401E524759A
:1000BE00F00A84E5F0FD7C007F051204017D0B7CC7
:1000CE00007F06120401E52675F00A84FD7C007F90
:1000DE0007120401E52675F00A84E5F0FD7C007F29
:0700EE0008120401020011D9
:10030500E52760220526E526C394644019E4F52611
:100315000524E524943C400EE4F5240525E52594C3
:070325003C4003E4F5252232
:03000B000200F5FB
:1000F500C0E0C0F0C083C082C0D075D000C000C0D1
:0D01050001C002C003C004C005C006C00751
:10011200758A18758CFC051FE51F7002051EC394B5
:1001220014E51E94004009751E00751F001202732B
:100132000521E52170020520C39402E520940040C8
:100142000975200075210012038B0523E523700237
:100152000522C3940AE52294004009752200752302
:04016200001203057F
:10016600D007D006D005D004D003D002D001D000ED
:0B017600D0D0D082D083D0F0D0E03297
:0403A600EF4E6013A3
:1003AA00752C0C752DA9D52DFDD52CFAEF1F70ECE7
:0103BA001E24
:0303BB0080E922B4
:05041300AF2BE4F52B06
:0104180022C1
:1003D500E4FF20B1010F20B0027F0220B2027F03AB
:0503E50020B3027F04BB
:0103EA0022F0
:1002730085292A1203D58F29E529B40107E52A70B8
:1002830003752B01E5297008E52AB40203752B02D7
:10029300E5297008E52AB40303752B03E5297008E3
:0802A300E52AB40403752B04E5
:0102AB002230
:10036E000909000A0A0A0A0A0A0A0A0C123F065B5F
:0C037E004F666D7D077F6F004001080195
:09040100AE0574092FF8A60622CD
:10020D00E4F580EF14B40800505490022575F00306
:10021D00A4C58325F0C5837302023D02024102028B
:10022D004502024902024D02025502025D020265BB
:10023D00D2A4800ED2A48012D2A48016D2A4801A89
:10024D00C2A4D2A3D2A28016C2A4D2A3C2A2800EEF
:10025D00C2A4C2A3D2A28006C2A4C2A3C2A2741217
:06026D002DF8E6F58022E9
:10038B0074092508F8E6FD7C00AF0812020D05087C
:0A039B00E508C3940940037508014A
:0103A5002235
:1003BE005389F0438901758A18758CFCC28DD28CD5
:0703CE00D2A9D2AFC2B9228F
:10032C008F2C8C2D8D2E12040A7FA01202DC12034E
:10033C00EBAF2C1202DC1203EBAF2E1202DC120319
:04034C00EB020003BD
:0202AC008F2C95
:1002AE0012040A7FA01202DC1203EBAF2C1202DC46
:1002BE001203EB12040A7FA11202DC1203EB1203EB
:0D02CE00508F2D7F011203F7120003AF2D9A
:0102DB002200
:09040A00D2A0D2A1C2A0C2A1221D
:07000300C2A0D2A1D2A0228D
:0202DC00AD076C
:1002DE00E4FB74807E00A803088006CEA2E713CE4E
:1002EE0013D8F8FFEDF582EF558224FF92A0D2A12C
:0602FE00C2A10BBB08DCED
:0103040022D6
:10035000E4FFD2A0FED2A130A00D7480A8060880D0
:0D03600002C313D8FC4207C2A10EBE08E87C
:01036D00226D
:0A03F700EF24FF92A0D2A1C2A122C0
:0B03EB00D2A0D2A1A2A0E433FFC2A167
:0103F60022E4
:0300000002018179
:0C018100787FE4F6D8FD75812E0201C8DD
:10018D0002000EE493A3F8E493A34003F68001F27A
:10019D0008DFF48029E493A3F85407240CC8C33373
:1001AD00C4540F4420C8834004F456800146F6DF42
:1001BD00E4800B010204081020408090036EE47E61
:1001CD00019360BCA3FF543F30E509541FFEE49337
:1001DD00A360010ECF54C025E060A840B8E493A3FE
:1001ED00FAE493A3F8E493A3C8C582C8CAC583CA29
:1001FD00F0A3C8C582C8CAC583CADFE9DEE780BEE1
:01038A000072
:00000001FF
