:05044E00544553540069
:10036E001200067BFF7A04794E7D017F0112031085
:0B037E001203A2120448751E3280FE1C
:03001B000202E5F9
:1002E500C0E0C0F0C0D0758AA4758CFF051FE51F5E
:1002F50075F0648485F01FE51FC3951E5004D290E8
:0B0305008002C290D0D0D0F0D0E032D7
:04038900EF4E6014BF
:10038D00007536027537C7D537FDD536FAEF1F70B4
:02039D00EB1E55
:03039F0080E822D1
:0603B900C2A58F80D2A74F
:0903BF00007F027EC7DEFEDFFCB8
:0103C8002212
:0A042500C2A61203B9C2A70203BF6A
:10033300CFCDCFCECCCE1201A97C007D0A1201A96C
:04034300ED2430FF76
:0A034700D2A61203B9C2A70203BF39
:100006007F381204257F0C1204257F061204257FF3
:0400160001020425BA
:1003C900EDBF0103148002243F4480FF120425225B
:0A042F00AC031203C9AF0402034737
:060310008B338A348935AD
:100316001203C9E4FDAB33AA34A9358D8275830077
:0C03260012016AFF60061203470D80E917
:0103320022A8
:0C02B2007F0AEA24FFFDE434FFFC7E001C
:0802BE008E2F8F308C318D3240
:1002C6007F017E00E4FBEBC39532E5316480F87470
:0E02D6008098500AAC2FAD301201970B80E8D3
:0102E40022F7
:040351008A228B234E
:100355001203C9AA24EAD39400400D1202B2AC22BA
:08036500AD231203331A80EDF1
:01036D00226D
:1001FE001203C9D3EB9400EA6480948040097F2BEC
:10020E001203478A198B1AC3EA64809480500E7FBA
:10021E002D120347C3E49BF51AE49AF519AA18EABE
:10022E00D39400400D1202B2AC19AD1A1203331A58
:02023E0080ED51
:01024000229B
:040241008A278B2855
:100245001203C9AA29EAD3940040297F101202B4E7
:10025500AC27AD28CFCDCFCECCCE1201A9EF540F10
:10026500FEC3940AEE5004243080022437FF1203A3
:04027500471A80D1D3
:010279002262
:04027A008A2C8B2D12
:10027E001203C9AA2EEAD394004028EA24FFFDE413
:10028E0034FFFC7F027E001202BEAC2CAD2DCFCD12
:10029E00CFCECCCE1201A9EF54012430FF1203476A
:0302AE001A80D2E1
:0102B100222A
:0B040F00D288C289D2A8D2AFD2B82296
:1003D9005389F0438901E4F58AF58CC28DC28C22D8
:0B041A00AD07AC068C8CAF058F8A226A
:09043900AF8CEFFEAD8AEDFF224D
:06044200EF24FF928C2262
:060448001203D902040FAB
:0D03E900E50F6006E4F50F7F01227F002282
:0D03F600E50D6006E4F50D7F01227F002279
:03045300AF0C22C9
:03045600AF0B22C7
:0300030002001EDA
:10001E00C0E0C0F0C083C082C0D075D000C000C0A8
:10002E0001C002C003C004C005C006C007E50870C9
:10003E000CFFFE12041A7F011204428049E5086487
:10004E000170491204398E098F0AE4FFFE12041A58
:10005E00D3E50A94A6E509942E4010E50A948EE5A0
:10006E00099432500675080202014FD3E50A948CAA
:10007E00E50994264010E50A9474E509942A500681
:10008E00750D0102014775080102014FE508640272
:10009E00600302014F1204398E098F0AE4FFFE122B
:1000AE00041AD3E50A9414E5099402402CE50A9447
:1000BE00FCE50994055022E50E131313541F24106A
:1000CE00F8C000E6FFE50E5407FE7401A80608808E
:1000DE0002C333D8FCF45F8034D3E50A9426E509D5
:1000EE0094064030E50A940EE509940A5026E50E72
:1000FE00131313541F2410F8C000E6FFE50E540727
:10010E00FE7401A806088002C333D8FC4FD000F657
:10011E00050E8006750E00750801E50EC39420408D
:10012E0020750E00E511F4B5100FE513F4B51209A4
:10013E0085100C85120B750F01E4FF120442750831
:10014E0000D007D006D005D004D003D002D001D005
:0C015E0000D0D0D082D083D0F0D0E032AE
:1003A20053890F438910758BA4758DFFC28FD28E2E
:0703B200D2ABD2AFC2BB22A7
:03000000020403F4
:0C040300787FE4F6D8FD75813702036EA7
:10016A00BB010CE58229F582E5833AF583E022504A
:10017A0006E92582F8E622BBFE06E92582F8E22294
:0D018A00E58229F582E5833AF583E49322AE
:10019700EF8DF0A4A8F0CF8CF0A428CE8DF0A42E7C
:0201A700FE2236
:1001A900BC000BBE0029EF8DF084FFADF022E4CC3A
:1001B900F875F008EF2FFFEE33FEEC33FCEE9DEC03
:1001C900984005FCEE9DFE0FD5F0E9E4CEFD22ED49
:1001D900F8F5F0EE8420D21CFEADF075F008EF2F93
:1001E900FFED33FD4007985006D5F0F222C398FD84
:0501F9000FD5F0EA2221
:00000001FF
