:100A3900543A0054483A00544C3A004F563A480048
:0A0A49004F563A4C002020202000F8
:030B3100010F00B1
:10046D00E4FF12089B8F147F0112089B8F0ED3E5BA
:10047D0014648094FD5015C3E50E64809449400CBE
:10048D00E5146480F8E50E6480984006750EFB75E2
:10049D001414120A85120AEB7FE87E03120A531216
:1004AD000AC87BFF7A0A79397D017F011209447BE5
:1004BD00FF7A0A793C7D017F021209447BFF7A0A9B
:1004CD0079407D097F021209441206FC7515008FD3
:1004DD0016120AEB1208CB8F138E128D118C10E4AD
:1004ED00FFFEFDFCAB13AA12A911A8101201B45006
:1004FD001E7B2D7D037F01120B0EAF13AE12AD11BE
:10050D00AC1012022D8F1A8E198D188C1780157B39
:10051D002B7D037F01120B0E85131A851219851180
:10052D0018851017AF1AAE19AD18AC1712027CABA7
:10053D0007AA06751F037D047F011209E37B2E7D3B
:10054D00077F01120B0EE4FFFE7DC87C42AB1AAA99
:10055D0019A918A81712000E12027CE47B64FAF98F
:10056D00F81203CD751F027D087F011209E3E51412
:10057D00FB3395E0FA751F037D047F021207BDE57D
:10058D000EFB3395E0FA751F037D0C7F021207BD3C
:10059D00E516451570030204D6E5157070E51624B1
:1005AD00FE602114603814604F2403706005147FC1
:1005BD00647E00120967D3E514648094FD404E7586
:1005CD00147D804915147F647E00120967D3E50EF2
:1005DD006480F8E51464809850330514802F050E5F
:1005ED007F647E00120967C3E5146480F8E50E642C
:1005FD0080984019150E8015150E7F647E00120926
:10060D0067C3E50E648094495003750EC9AC14ECB4
:10061D00120248AB13AA12A911A8101201B4600A54
:10062D0040087BFF7A0A79448019AC0EEC1202481F
:10063D00AB13AA12A911A8101201B450137BFF7AA3
:10064D000A79497D0D7F01120944750F010204D607
:10065D007BFF7A0A794E7D0D7F01120944E4F50F77
:03066D000204D6AE
:03000B0002075D8C
:10075D00C0E0C0F0C083C082C0D075D000C000C062
:0D076D0001C002C003C004C005C006C007E3
:10077A00758A18758CFC0509E50970020508C39489
:10078A0014E5089400400975080075090012000074
:08079A00050BE50B7002050AD6
:1007A200D007D006D005D004D003D002D001D000AB
:0B07B200D0D0D082D083D0F0D0E03255
:040A5300EF4E6014EE
:100A570000751C02751DC7D51DFDD51CFAEF1F704B
:020A6700EB1E84
:030A690080E82200
:060ADC00C2A58F80D2A725
:080AE2007F027EEFDEFEDFFC67
:010AEA0022E9
:0A0B0400C2A6120ADCC2A7020AE230
:10098900CFCDCFCECCCE12033C7C007D0A12033CE6
:04099900ED2430FF1A
:0A099D00D2A6120ADCC2A7020AE289
:100A9C00AE07BE0104ED148006BE0209ED243F44EE
:060AAC0080FF120B042282
:100AC8007F38120B047F0C120B047F06120B047F75
:040AD80001020B0408
:0A0B0E00AC03120A9CAF0402099D1B
:060944008B1B8A1C891DBB
:10094A00120A9CE4FDAB1BAA1CA91D8D82758300AB
:0C095A001202FDFF600612099D0D80E9ED
:01096600226E
:0C0868007F0AEA24FFFDE434FFFC7E0060
:080874008E228F238C248D25B8
:10087C007F017E00E4FBEBC39525E5246480F874CE
:0E088C008098500AAC22AD2312032A0B80E89C
:01089A00223B
:0409E3008A1D8B1EC0
:1009E700120A9CAA1FEAD39400400D120868AC1D96
:0809F700AD1E1209891A80ED02
:0109FF0022D5
:1007BD00120A9CC3EA64809480400B7F2B12099D22
:1007CD008A208B21800E7F2D12099DC3E49BF5217C
:1007DD00E49AF520AA1FEAD39400400D120868ACE4
:0907ED0020AD211209891A80EDEA
:0107F60022E0
:0407F7008A288B2998
:1007FB00120A9CAA2AEAD3940040297F1012086A95
:10080B00AC28AD29CFCDCFCECCCE12033CEF540FBD
:10081B00FEC3940AEE5004243080022437FF1209E1
:04082B009D1A80D1C1
:01082F0022A6
:040830008A2D8B2E54
:10083400120A9CAA2FEAD394004028EA24FFFDE47C
:1008440034FFFC7F027E00120874AC2DAD2ECFCD98
:10085400CFCECCCE12033CEF54012430FF12099DBD
:030864001A80D225
:01086700226E
:1009A700D2B7C2B7C2AF7FE3DFFED2B77F1DDFFE8C
:0D09B700A2B7E433FE7FE3DFFED2AFAF0650
:0109C4002210
:100AB200C2AFC2B77E04DEFEEF24FF92B77E16DE1F
:050AC200FED2B7D2AF27
:010AC700220C
:100A1D00C2AFC2B77F02DFFED2B77F02DFFEA2B741
:0B0A2D00E433FE7F16DFFED2AFAF0601
:010A3800229B
:020A6C00AD07D4
:100A6E00E4FC7401A804088002C333D8FC5DFF12B5
:060A7E000AB20CBC08ECFA
:010A8400224F
:100A0000E4FDFC120A1DEF600D7401A804088002C9
:0C0A1000C333D8FC42050CBC08E9AF055C
:010A1C0022B7
:0D0AEB001209A77FCC120A6C7F44020A6C2E
:1008CB001209A77FCC120A6C7FBE120A6C120A00A7
:1008DB008F1B120A00EFFEE51BFFFDAC06EC1202AC
:0B08EB0043E4FBFA798078411201170A
:0108F60022DF
:100920008F308C318D32120B227FA01208F7120A01
:10093000F8AF301208F7120AF8AF321208F7120AAD
:04094000F8020003B6
:02089B008F1BB1
:10089D00120B227FA01208F7120AF8AF1B1208F7ED
:1008AD00120AF8120B227FA11208F7120AF8120988
:0D08BD00C58F1C7F01120B18120003AF1C29
:0108CA00220B
:090B2200D2A0D2A1C2A0C2A122FE
:07000300C2A0D2A1D2A0228D
:0208F700AD074B
:1008F900E4FB74807E00A803088006CEA2E713CE2D
:1009090013D8F8FFEDF582EF558224FF92A0D2A10A
:06091900C2A10BBB08DCCB
:01091F0022B5
:1009C500E4FFD2A0FED2A130A00D7480A806088055
:0D09D50002C313D8FC4207C2A10EBE08E801
:0109E20022F2
:0A0B1800EF24FF92A0D2A1C2A12297
:0B0AF800D2A0D2A1A2A0E433FFC2A153
:010B030022CF
:1006FC00E4F51B20B1137F14FE120A5330B1FD7FB9
:10070C00147E00120A53751B0120B0147F147E0056
:10071C00120A5330B0FD7F147E00120A53751B026F
:10072C0020B2147F147E00120A5330B2FD7F147E67
:10073C0000120A53751B0320B3147F147E00120A97
:10074C005330B3FD7F147E00120A53751B04AF1B8C
:01075C00227A
:100A85005389F0438901758A18758CFCC28DD28C07
:070A9500D2A9D2AFC2B922C1
:050B2B00007FE3DFFE86
:010B300022A2
:04096700AD07AC0626
:10096B00E4FBFAED25E0FFEC33FEC3EB9FEA9E5070
:0D097B000CB2A5120B2B0BBB00010A80E68D
:01098800224C
:10000E00EC4D6011E8497017ED33EC3304600DE4EC
:10001E00FCFFFEFD22E933E8330470F80202E81219
:10002E0002B358046009E4CC24815006285009021A
:10003E0002F22840030202EFC0E0EB4A7044B9809E
:10004E0006D0E0FB0202DEEF4E701CBD8008EBFF17
:10005E00EAFEE9FD80EBE98DF0A4FEE5F00200F783
:10006E00E9CDF9EAFEEBFFEF89F0A4FCE5F0CE89CD
:10007E00F0A42EFFE435F0CD89F0A42DFEE435F08A
:10008E008067EF4E7005BD80D780C3EF8BF0A4ACB8
:10009E00F0EE8BF0A42CFCE435F0F8EF8AF0A42CF3
:1000AE00E5F038FCE433CB8DF0A42CFCE5F03BF806
:1000BE00EE8AF0A42CFCE5F038F8E433CF89F0A4F6
:1000CE002CFCE5F038CF3400CE89F0A42FFFE5F0FC
:1000DE003EFEE433C98DF0A42EFEE5F039CD8AF054
:1000EE00A42FFFE5F03EFEE43DFD33D0E0FB5007CC
:1000FE000BBB000F0202F2EC2CFCEF33FFEE33FED3
:06010E00ED33FD0202CA00
:100114000202F2EC5D046005E8590470030202E88F
:100124001202B3580460F6EC4860F2EC7004FDFE71
:10013400FF22C860DB2481C85009C39860025006BE
:100144000202EF9850CAF582E9294B4A7005AB8246
:100154000202DE75F0007C1A7880C3EF9BEE9AED04
:1001640099400DC3EF9BFFEE9AFEED99FDE842F036
:10017400DC23ACF0D0E0FFD0E0FED0E0FDAB822089
:10018400E7101BEB60BAEC2CFCEF33FFEE33FEED13
:1001940033FD0202CAE803F830E705C0F075F00049
:1001A400EF2FFFEE33FEED33FD40B830E7C280AAF7
:1001B40074F8CC6480CCC86480C8F58204604FC3F2
:1001C400EB9FF5F0EA9E42F0E99D42F0E89C45F091
:1001D400603C501DE5825FFFE582D313CB5BCBF41B
:1001E4002B5582FB50280ABA002409B90020088044
:1001F4001DE5825BFBE582D313CF5FCFF4C3132FDE
:100204005582FF50090EBE00050DBD00010CC3EB65
:100214009FF5F0EA9E42F0E99D42F0E89C45F060CB
:0902240007CC4820E701B3EC22ED
:10022D00ED33EC33600A047003BD8004ECB2E7FCDF
:01023D00229E
:10023E0075F020800E75F010800575F0087D007E3B
:10024E00007F003392D530D50312045FEC3340109B
:10025E00EF33FFEE33FEED33FDEC33FCD5F0ED2244
:0E026E00E5F0247EA2D513CC92E7CDCEFF2280
:10027C00EDD2E7CD33EC3392D524814006E4FFFE7A
:10028C00FDFC22FCE4CFCECDCC24E0501174FF80D9
:10029C00EDC3CC13CCCD13CDCE13CECF13CF047076
:0702AC00F030D5DE02045F13
:1002B300E9D2E7C933E833F892D5EDD2E7CD33EC91
:0702C30033FC5002B2D5220A
:1002CA00EC30E7100FBF000C0EBE00080DBD000495
:1002DA000BEB6014A2D5EB13FCED92E7FD2274FF41
:1002EA00FCFDFEFF22E480F8A2D574FF13FC7D809A
:0302FA00E480EFAE
:0300000002067085
:0C067000787FE4F6D8FD7581320206B7F1
:1002FD00BB010CE58229F582E5833AF583E02250B6
:10030D0006E92582F8E622BBFE06E92582F8E222FF
:0D031D00E58229F582E5833AF583E4932219
:10032A00EF8DF0A4A8F0CF8CF0A428CE8DF0A42EE7
:02033A00FE22A1
:10033C00BC000BBE0029EF8DF084FFADF022E4CCA5
:10034C00F875F008EF2FFFEE33FEEC33FCEE9DEC6E
:10035C00984005FCEE9DFE0FD5F0E9E4CEFD22EDB4
:10036C00F8F5F0EE8420D21CFEADF075F008EF2FFE
:10037C00FFED33FD4007985006D5F0F222C398FDEF
:05038C000FD5F0EA228C
:1003910075F008758200EF2FFFEE33FECD33CDCC23
:1003A10033CCC58233C5829BED9AEC99E5829840A6
:1003B1000CF582EE9BFEED9AFDEC99FC0FD5F0D683
:1003C100E4CEFBE4CDFAE4CCF9A88222B800C1B9AD
:1003D1000059BA002DEC8BF084CFCECDFCE5F0CBEB
:1003E100F97818EF2FFFEE33FEED33FDEC33FCEB24
:1003F10033FB10D703994004EB99FB0FD8E5E4F9DF
:10040100FA227818EF2FFFEE33FEED33FDEC33FCCB
:10041100C933C910D7059BE99A4007EC9BFCE99ABF
:10042100F90FD8E0E4C9FAE4CCFB2275F010EF2F04
:10043100FFEE33FEED33FDCC33CCC833C810D70704
:100441009BEC9AE899400AED9BFDEC9AFCE899F83F
:0E0451000FD5F0DAE4CDFBE4CCFAE4C8F922D2
:0E045F00C3E49FFFE49EFEE49DFDE49CFC22AE
:10067C0002046DE493A3F8E493A34003F68001F223
:10068C0008DFF48029E493A3F85407240CC8C3337F
:10069C00C4540F4420C8834004F456800146F6DF4E
:1006AC00E4800B0102040810204080900B31E47EA2
:1006BC00019360BCA3FF543F30E509541FFEE49343
:1006CC00A360010ECF54C025E060A840B8E493A30A
:1006DC00FAE493A3F8E493A3C8C582C8CAC583CA35
:1006EC00F0A3C8C582C8CAC583CADFE9DEE780BEED
:010B340000C0
:00000001FF
