:05001E0012000380FE4A
:03002300020026B2
:10002600C0E0C0F0C083C082C0D075D000C000C0A0
:1000360001C002C003C004C005C006C00730980C4A
:10004600E599F4F5A0AF991200A8C298D007D0069A
:10005600D005D004D003D002D001D000D0D0D082B9
:07006600D083D0F0D0E0329E
:04006D00EF4E6013DF
:100071007508027509EFD509FDD508FAEF1F70EC77
:010081001E60
:0300820080E922F0
:1000850075984075878053890F438920758BF47562
:070095008DF4D28EC2AB22F4
:1000030075985075878053890F438920758BF475D4
:0B0013008DF4D28EC2ABD2AFD2AC2273
:0800A8008F993099FDC29922E5
:0300000002009C5F
:0C009C00787FE4F6D8FD75810A02001E92
:00000001FF
