:04010B0002080001E5
:10008F0075A0FEE5A0B4FE15E5A0F425E0F4F5A0FB
:10009F007FC87E001200F3750800750901E5A0B452
:1000AF007F14E5A0F4C313F4F5A07FC87E001200FF
:1000BF00F3E4F508F509E50964014508700FE5A0BB
:1000CF00F425E0F4F5A07FC87E001200F3E50945A2
:1000DF000870B0E5A0F4C313F4F5A07FC87E00123A
:0400EF0000F3809FFB
:0400F300EF4E601359
:1000F700750A0C750BA9D50BFDD50AFAEF1F70EC25
:010107001ED9
:0301080080E92269
:03000000020003F8
:0C000300787FE4F6D8FD75810B02004AFE
:10000F0002008FE493A3F8E493A34003F68001F278
:10001F0008DFF48029E493A3F85407240CC8C333F2
:10002F00C4540F4420C8834004F456800146F6DFC1
:10003F00E4800B010204081020408090010BE47E45
:10004F00019360BCA3FF543F30E509541FFEE493B6
:10005F00A360010ECF54C025E060A840B8E493A37D
:10006F00FAE493A3F8E493A3C8C582C8CAC583CAA8
:10007F00F0A3C8C582C8CAC583CADFE9DEE780BE60
:01010F0000EF
:00000001FF
