:0602BD00486F6C6C650047
:100097001202697B417D057F021202B37BFF7A0260
:1000A70079BD7D037F011201F3750C037B427A0052
:1000B7007D097F01120234750C027BAA7AFF7D0D40
:1000C7007F0112010C750C027BA57A007D017F026E
:1000D70012014F750C087BA57A007D077F0212017C
:1000E700887BDF7D047F021202B37BFF7A0279BD32
:1000F7007D107F011201F37F181202A97F327E0063
:0501070012025180F21C
:06027D00C2A58F80D2A78C
:09028300007F027EC7DEFEDFFCF5
:01028C00224F
:0A02A900C2A612027DC2A702028362
:10021600CFCDCFCECCCE1200427C007D0A1200425A
:04022600ED2430FF94
:0A022A00D2A612027DC2A7020283D1
:100269007F381202A97F0C1202A97F061202A97F08
:04027900010202A9D3
:10028D00EDBF0103148002243F4480FF1202A92216
:0A02B300AC0312028DAF0402022A10
:0601F3008B088A09890A4D
:1001F90012028DE4FDAB08AA09A90A8D8275830054
:0C020900120003FF600612022A0D80E9BB
:0102150022C6
:0C01C0007F0AEA24FFFDE434FFFC7E000F
:0801CC008E0F8F108C118D12B3
:1001D4007F017E00E4FBEBC39512E5116480F874A3
:0E01E4008098500AAC0FAD101200300B80E86E
:0101F20022EA
:040234008A0A8B0B9C
:1002380012028DAA0CEAD39400400D1201C0AC0A38
:08024800AD0B1202161A80ED45
:01025000228B
:10010C0012028DD3EB9400EA6480948040097F2B1B
:10011C0012022A8A0D8B0EC3EA64809480500E7FE3
:10012C002D12022AC3E49BF50EE49AF50DAA0CEAF3
:10013C00D39400400D1201C0AC0DAD0E1202161A74
:02014C0080ED44
:01014E00228E
:04014F008A0A8B0B82
:1001530012028DAA0CEAD3940040297F101201C227
:10016300AC0AAD0BCFCDCFCECCCE120042EF540FA5
:10017300FEC3940AEE5004243080022437FF120297
:040183002A1A80D1E3
:010187002255
:040188008A0A8B0B49
:10018C0012028DAA0CEAD394004028EA24FFFDE465
:10019C0034FFFC7F027E001201CCAC0AAD0BCFCD3C
:1001AC00CFCECCCE120042EF54012430FF12022AE3
:0301BC001A80D2D4
:0101BF00221D
:04025100EF4E6013F9
:1002550075080C7509A9D509FDD508FAEF1F70ECCD
:010265001E7A
:0302660080E9220A
:0300000002029D5C
:0C029D00787FE4F6D8FD7581120200970E
:10000300BB010CE58229F582E5833AF583E02250B2
:1000130006E92582F8E622BBFE06E92582F8E222FC
:0D002300E58229F582E5833AF583E4932216
:10003000EF8DF0A4A8F0CF8CF0A428CE8DF0A42EE4
:02004000FE229E
:10004200BC000BBE0029EF8DF084FFADF022E4CCA2
:10005200F875F008EF2FFFEE33FEEC33FCEE9DEC6B
:10006200984005FCEE9DFE0FD5F0E9E4CEFD22EDB1
:10007200F8F5F0EE8420D21CFEADF075F008EF2FFB
:10008200FFED33FD4007985006D5F0F222C398FDEC
:050092000FD5F0EA2289
:00000001FF
